S01400004C61626F7261746F72696F342E737265635E
S11300000C9444000C9461000C9461000C948F01D6
S11300100C9461000C9461000C9461000C946100D8
S11300200C9461000C9461000C9461000C946100C8
S11300300C9461000C9461000C9461000C946100B8
S11300400C9461000C9461000C9461000C946100A8
S11300500C9461000C9471010C9461000C94610087
S11300600C9461000C946100AE00B200B600BA00BA
S1130070BE00C200C600CA00CE00D200D600DA001C
S1130080DE00E200E600EA0011241FBECFEFD8E054
S1130090DEBFCDBF11E0A0E0B1E0ECECF3E002C0C4
S11300A005900D92A431B107D9F721E0A4E1B1E0A4
S11300B001C01D92AC31B207E1F70E94EE000C942E
S11300C0E4010C940000282F22952F7030E0309327
S11300D01701209316018F7090E09093190180937B
S11300E01801089520911A0130911B018091140187
S11300F0909115018217930724F485B1806185B925
S1130100089585B18F7E85B90895ECE7F0E080818C
S11301108760808380818064808380818F778083FF
S1130120808180628083EAE7F0E0108280818068C9
S11301308083808188608083808187608083EEE70C
S1130140F0E080818160808308958031910508F01A
S113015044C0FC01EC5CFF4F0C94DE0185B18F7D43
S113016085B9089585B18F7D85B9089585B180627B
S113017085B9089585B1806285B9089585B1806295
S113018085B9089585B1806285B9089585B1806285
S113019085B9089585B18F7D85B9089585B180624B
S11301A085B9089585B1806285B9089585B1806265
S11301B085B9089585B1806285B9089585B18F7D2B
S11301C085B9089585B1806285B9089585B1806245
S11301D085B9089585B1806285B90895F8940E941F
S11301E085008FEF8AB91BB887B918B884B18C63BE
S11301F084B91092C10084B18E7F84B985B18160C5
S113020085B984B18D7F84B985B1826085B9E8E60A
S1130210F0E0808181608083EBE6F0E080818360A0
S1130220808378940E94720080911401909115014A
S11302308F3F910529F024F01092150110921401BA
S11302408091140190911501992334F48FEF90E07B
S11302509093150180931401809114018BB9EAE7FE
S1130260F0E0808180648083CAE1D1E088810E94CB
S11302706300E0911801F0911901E050FF4F808173
S113028088B980911801909119010E94A50085B147
S1130290886085B985B18B7F85B98FE39CE9019727
S11302A0F1F700C0000088810E946300E09116010C
S11302B0F0911701E050FF4F808188B980911601B9
S11302C0909117010E94A50085B1846085B985B11C
S11302D0877F85B98FE39CE90197F1F700C000009F
S11302E0A1CF1F920F920FB60F9211248F939F9359
S11302F0EF93FF938091790090E090931B0180939A
S11303001A01EAE7F0E0808180618083FF91EF9138
S11303109F918F910F900FBE0F901F9018951F9271
S11303200F920FB60F9211242F933F938F939F93A5
S11303302FEF80E792E0215080409040E1F700C029
S1130340000093B191709093120183B182708093F5
S11303501001911110C020911301213061F4109209
S1130360130120911401309115012F5F3F4F3093F9
S1130370150120931401913011F49093130181110C
S113038010C090911101923061F4109211012091EA
S11303901401309115012150310930931501209336
S11303A01401823011F4809311019F918F913F9138
S11303B02F910F900FBE0F901F901895EE0FFF1FF7
S10F03C00590F491E02D0994F894FFCF0F
S11303CC3F065B4F666D7D077F6F777C395E797175
S10703DC0102010114
S9030000FC
