S01000005072656C616220342E737265636A
S11300000C9434000C9451000C9451000C948B000B
S11300100C9451000C9451000C9451000C94510018
S11300200C9451000C9451000C9451000C94510008
S11300300C9451000C9451000C9451000C945100F8
S11300400C9451000C9451000C9451000C945100E8
S11300500C9451000C9451000C9451000C945100D8
S11300600C9451000C94510011241FBECFEFD8E022
S1130070DEBFCDBF11E0A0E0B1E0E8EBF1E002C0EB
S113008005900D92A430B107D9F721E0A4E0B1E0C6
S113009001C01D92A630B207E1F70E9453000C94F0
S11300A0DA000C9400008FEF8AB91BB81092C100DB
S11300B084B18E7F84B985B1816085B984B18D7F27
S11300C084B985B1826085B9E8E6F0E08081816019
S11300D08083EBE6F0E08081836080837894809174
S11300E00401909105018F3F910529F024F01092AD
S11300F00501109204018091040190910501992356
S113010034F48FEF90E09093050180930401809183
S113011004018BB9E4CF1F920F920FB60F921124F2
S11301202F933F938F939F932FEF80E792E021507B
S113013080409040E1F700C0000093B1917090932B
S1130140020183B1827080930001911110C020914B
S11301500301213061F410920301209104013091D4
S113016005012F5F3F4F3093050120930401913027
S113017011F490930301811110C090910101923008
S113018061F4109201012091040130910501215084
S113019031093093050120930401823011F48093D6
S11301A001019F918F913F912F910F900FBE0F905E
S10B01B01F901895F894FFCF8D
S10701B8010201013A
S9030000FC
